{
  "contractName": "Creature",
  "abi": [
    {
      "inputs": [
        {
          "internalType": "address",
          "name": "_proxyRegistryAddress",
          "type": "address"
        }
      ],
      "stateMutability": "nonpayable",
      "type": "constructor"
    },
    {
      "anonymous": false,
      "inputs": [
        {
          "indexed": true,
          "internalType": "address",
          "name": "owner",
          "type": "address"
        },
        {
          "indexed": true,
          "internalType": "address",
          "name": "approved",
          "type": "address"
        },
        {
          "indexed": true,
          "internalType": "uint256",
          "name": "tokenId",
          "type": "uint256"
        }
      ],
      "name": "Approval",
      "type": "event"
    },
    {
      "anonymous": false,
      "inputs": [
        {
          "indexed": true,
          "internalType": "address",
          "name": "owner",
          "type": "address"
        },
        {
          "indexed": true,
          "internalType": "address",
          "name": "operator",
          "type": "address"
        },
        {
          "indexed": false,
          "internalType": "bool",
          "name": "approved",
          "type": "bool"
        }
      ],
      "name": "ApprovalForAll",
      "type": "event"
    },
    {
      "anonymous": false,
      "inputs": [
        {
          "indexed": false,
          "internalType": "address",
          "name": "userAddress",
          "type": "address"
        },
        {
          "indexed": false,
          "internalType": "address payable",
          "name": "relayerAddress",
          "type": "address"
        },
        {
          "indexed": false,
          "internalType": "bytes",
          "name": "functionSignature",
          "type": "bytes"
        }
      ],
      "name": "MetaTransactionExecuted",
      "type": "event"
    },
    {
      "anonymous": false,
      "inputs": [
        {
          "indexed": true,
          "internalType": "address",
          "name": "previousOwner",
          "type": "address"
        },
        {
          "indexed": true,
          "internalType": "address",
          "name": "newOwner",
          "type": "address"
        }
      ],
      "name": "OwnershipTransferred",
      "type": "event"
    },
    {
      "anonymous": false,
      "inputs": [
        {
          "indexed": true,
          "internalType": "address",
          "name": "from",
          "type": "address"
        },
        {
          "indexed": true,
          "internalType": "address",
          "name": "to",
          "type": "address"
        },
        {
          "indexed": true,
          "internalType": "uint256",
          "name": "tokenId",
          "type": "uint256"
        }
      ],
      "name": "Transfer",
      "type": "event"
    },
    {
      "inputs": [],
      "name": "ERC712_VERSION",
      "outputs": [
        {
          "internalType": "string",
          "name": "",
          "type": "string"
        }
      ],
      "stateMutability": "view",
      "type": "function",
      "constant": true
    },
    {
      "inputs": [
        {
          "internalType": "address",
          "name": "to",
          "type": "address"
        },
        {
          "internalType": "uint256",
          "name": "tokenId",
          "type": "uint256"
        }
      ],
      "name": "approve",
      "outputs": [],
      "stateMutability": "nonpayable",
      "type": "function"
    },
    {
      "inputs": [
        {
          "internalType": "address",
          "name": "owner",
          "type": "address"
        }
      ],
      "name": "balanceOf",
      "outputs": [
        {
          "internalType": "uint256",
          "name": "",
          "type": "uint256"
        }
      ],
      "stateMutability": "view",
      "type": "function",
      "constant": true
    },
    {
      "inputs": [
        {
          "internalType": "address",
          "name": "userAddress",
          "type": "address"
        },
        {
          "internalType": "bytes",
          "name": "functionSignature",
          "type": "bytes"
        },
        {
          "internalType": "bytes32",
          "name": "sigR",
          "type": "bytes32"
        },
        {
          "internalType": "bytes32",
          "name": "sigS",
          "type": "bytes32"
        },
        {
          "internalType": "uint8",
          "name": "sigV",
          "type": "uint8"
        }
      ],
      "name": "executeMetaTransaction",
      "outputs": [
        {
          "internalType": "bytes",
          "name": "",
          "type": "bytes"
        }
      ],
      "stateMutability": "payable",
      "type": "function",
      "payable": true
    },
    {
      "inputs": [
        {
          "internalType": "uint256",
          "name": "tokenId",
          "type": "uint256"
        }
      ],
      "name": "getApproved",
      "outputs": [
        {
          "internalType": "address",
          "name": "",
          "type": "address"
        }
      ],
      "stateMutability": "view",
      "type": "function",
      "constant": true
    },
    {
      "inputs": [],
      "name": "getBalance",
      "outputs": [
        {
          "internalType": "uint256",
          "name": "",
          "type": "uint256"
        }
      ],
      "stateMutability": "view",
      "type": "function",
      "constant": true
    },
    {
      "inputs": [],
      "name": "getChainId",
      "outputs": [
        {
          "internalType": "uint256",
          "name": "",
          "type": "uint256"
        }
      ],
      "stateMutability": "view",
      "type": "function",
      "constant": true
    },
    {
      "inputs": [],
      "name": "getDomainSeperator",
      "outputs": [
        {
          "internalType": "bytes32",
          "name": "",
          "type": "bytes32"
        }
      ],
      "stateMutability": "view",
      "type": "function",
      "constant": true
    },
    {
      "inputs": [
        {
          "internalType": "address",
          "name": "user",
          "type": "address"
        }
      ],
      "name": "getNonce",
      "outputs": [
        {
          "internalType": "uint256",
          "name": "nonce",
          "type": "uint256"
        }
      ],
      "stateMutability": "view",
      "type": "function",
      "constant": true
    },
    {
      "inputs": [
        {
          "internalType": "address",
          "name": "owner",
          "type": "address"
        },
        {
          "internalType": "address",
          "name": "operator",
          "type": "address"
        }
      ],
      "name": "isApprovedForAll",
      "outputs": [
        {
          "internalType": "bool",
          "name": "",
          "type": "bool"
        }
      ],
      "stateMutability": "view",
      "type": "function",
      "constant": true
    },
    {
      "inputs": [],
      "name": "mintCustomer",
      "outputs": [],
      "stateMutability": "payable",
      "type": "function",
      "payable": true
    },
    {
      "inputs": [
        {
          "internalType": "address",
          "name": "_to",
          "type": "address"
        }
      ],
      "name": "mintTo",
      "outputs": [],
      "stateMutability": "nonpayable",
      "type": "function"
    },
    {
      "inputs": [],
      "name": "name",
      "outputs": [
        {
          "internalType": "string",
          "name": "",
          "type": "string"
        }
      ],
      "stateMutability": "view",
      "type": "function",
      "constant": true
    },
    {
      "inputs": [],
      "name": "owner",
      "outputs": [
        {
          "internalType": "address",
          "name": "",
          "type": "address"
        }
      ],
      "stateMutability": "view",
      "type": "function",
      "constant": true
    },
    {
      "inputs": [
        {
          "internalType": "uint256",
          "name": "tokenId",
          "type": "uint256"
        }
      ],
      "name": "ownerOf",
      "outputs": [
        {
          "internalType": "address",
          "name": "",
          "type": "address"
        }
      ],
      "stateMutability": "view",
      "type": "function",
      "constant": true
    },
    {
      "inputs": [],
      "name": "renounceOwnership",
      "outputs": [],
      "stateMutability": "nonpayable",
      "type": "function"
    },
    {
      "inputs": [
        {
          "internalType": "address",
          "name": "from",
          "type": "address"
        },
        {
          "internalType": "address",
          "name": "to",
          "type": "address"
        },
        {
          "internalType": "uint256",
          "name": "tokenId",
          "type": "uint256"
        }
      ],
      "name": "safeTransferFrom",
      "outputs": [],
      "stateMutability": "nonpayable",
      "type": "function"
    },
    {
      "inputs": [
        {
          "internalType": "address",
          "name": "from",
          "type": "address"
        },
        {
          "internalType": "address",
          "name": "to",
          "type": "address"
        },
        {
          "internalType": "uint256",
          "name": "tokenId",
          "type": "uint256"
        },
        {
          "internalType": "bytes",
          "name": "_data",
          "type": "bytes"
        }
      ],
      "name": "safeTransferFrom",
      "outputs": [],
      "stateMutability": "nonpayable",
      "type": "function"
    },
    {
      "inputs": [
        {
          "internalType": "address",
          "name": "operator",
          "type": "address"
        },
        {
          "internalType": "bool",
          "name": "approved",
          "type": "bool"
        }
      ],
      "name": "setApprovalForAll",
      "outputs": [],
      "stateMutability": "nonpayable",
      "type": "function"
    },
    {
      "inputs": [
        {
          "internalType": "bytes4",
          "name": "interfaceId",
          "type": "bytes4"
        }
      ],
      "name": "supportsInterface",
      "outputs": [
        {
          "internalType": "bool",
          "name": "",
          "type": "bool"
        }
      ],
      "stateMutability": "view",
      "type": "function",
      "constant": true
    },
    {
      "inputs": [],
      "name": "symbol",
      "outputs": [
        {
          "internalType": "string",
          "name": "",
          "type": "string"
        }
      ],
      "stateMutability": "view",
      "type": "function",
      "constant": true
    },
    {
      "inputs": [
        {
          "internalType": "uint256",
          "name": "_tokenId",
          "type": "uint256"
        }
      ],
      "name": "tokenURI",
      "outputs": [
        {
          "internalType": "string",
          "name": "",
          "type": "string"
        }
      ],
      "stateMutability": "pure",
      "type": "function",
      "constant": true
    },
    {
      "inputs": [],
      "name": "totalSupply",
      "outputs": [
        {
          "internalType": "uint256",
          "name": "",
          "type": "uint256"
        }
      ],
      "stateMutability": "view",
      "type": "function",
      "constant": true
    },
    {
      "inputs": [
        {
          "internalType": "address",
          "name": "from",
          "type": "address"
        },
        {
          "internalType": "address",
          "name": "to",
          "type": "address"
        },
        {
          "internalType": "uint256",
          "name": "tokenId",
          "type": "uint256"
        }
      ],
      "name": "transferFrom",
      "outputs": [],
      "stateMutability": "nonpayable",
      "type": "function"
    },
    {
      "inputs": [
        {
          "internalType": "address",
          "name": "newOwner",
          "type": "address"
        }
      ],
      "name": "transferOwnership",
      "outputs": [],
      "stateMutability": "nonpayable",
      "type": "function"
    },
    {
      "inputs": [],
      "name": "withdrawMoney",
      "outputs": [],
      "stateMutability": "nonpayable",
      "type": "function"
    },
    {
      "inputs": [],
      "name": "baseTokenURI",
      "outputs": [
        {
          "internalType": "string",
          "name": "",
          "type": "string"
        }
      ],
      "stateMutability": "pure",
      "type": "function",
      "constant": true
    },
    {
      "inputs": [],
      "name": "contractURI",
      "outputs": [
        {
          "internalType": "string",
          "name": "",
          "type": "string"
        }
      ],
      "stateMutability": "pure",
      "type": "function",
      "constant": true
    }
  ],
  "bytecode": "0x60806040526006805460ff191690553480156200001b57600080fd5b50604051620023f1380380620023f18339810160408190526200003e916200039a565b6040518060400160405280600f81526020016e243cb6b0b721b7b63632b1ba34b7b760891b8152506040518060400160405280600381526020016248594d60e81b81525082828281600090805190602001906200009d929190620002f4565b508051620000b3906001906020840190620002f4565b505050620000d0620000ca6200011860201b60201c565b62000134565b600b80546001600160a01b0319166001600160a01b03831617905562000103600a62000186602090811b62000e7d17901c565b6200010e836200018f565b5050505062000409565b60006200012f620001f360201b62000e861760201c565b905090565b600980546001600160a01b038381166001600160a01b0319831681179093556040519116919082907f8be0079c531659141344cd1fd0a4f28419497f9722a3daafe3b4186f6b6457e090600090a35050565b80546001019055565b60065460ff1615620001d85760405162461bcd60e51b815260206004820152600e60248201526d185b1c9958591e481a5b9a5d195960921b604482015260640160405180910390fd5b620001e38162000252565b506006805460ff19166001179055565b6000333014156200024c57600080368080601f0160208091040260200160405190810160405280939291908181526020018383808284376000920191909152505050503601516001600160a01b031691506200024f9050565b50335b90565b6040518060800160405280604f8152602001620023a2604f9139805160209182012082519282019290922060408051808201825260018152603160f81b90840152805180840194909452838101919091527fc89efdaa54c0f20c7adf612882df0950f5a951637e0307cdcb4c672f298b8bc660608401523060808401524660a0808501919091528151808503909101815260c090930190528151910120600755565b8280546200030290620003cc565b90600052602060002090601f01602090048101928262000326576000855562000371565b82601f106200034157805160ff191683800117855562000371565b8280016001018555821562000371579182015b828111156200037157825182559160200191906001019062000354565b506200037f92915062000383565b5090565b5b808211156200037f576000815560010162000384565b600060208284031215620003ad57600080fd5b81516001600160a01b0381168114620003c557600080fd5b9392505050565b600181811c90821680620003e157607f821691505b602082108114156200040357634e487b7160e01b600052602260045260246000fd5b50919050565b611f8980620004196000396000f3fe6080604052600436106101475760003560e01c806301ffc9a71461014c57806306fdde0314610181578063081812fc146101a3578063095ea7b3146101d05780630c53c51c146101f25780630f7e59701461020557806311dec0ff1461023257806312065fe01461023a57806318160ddd1461025757806320379ee51461026c57806323b872dd146102815780632d0335ab146102a15780633408e470146102d757806342842e0e146102ea5780636352211e1461030a57806370a082311461032a578063715018a61461034a578063755edd171461035f5780638da5cb5b1461037f57806395d89b4114610394578063a22cb465146103a9578063ac446002146103c9578063b88d4fde146103de578063c87b56dd146103fe578063d547cfb71461041e578063e8a3d48514610433578063e985e9c514610448578063f2fde38b14610468575b600080fd5b34801561015857600080fd5b5061016c610167366004611871565b610488565b60405190151581526020015b60405180910390f35b34801561018d57600080fd5b506101966104da565b60405161017891906118e6565b3480156101af57600080fd5b506101c36101be3660046118f9565b61056c565b6040516101789190611912565b3480156101dc57600080fd5b506101f06101eb36600461193b565b6105f9565b005b610196610200366004611a09565b61071c565b34801561021157600080fd5b50610196604051806040016040528060018152602001603160f81b81525081565b6101f0610905565b34801561024657600080fd5b50475b604051908152602001610178565b34801561026357600080fd5b50610249610995565b34801561027857600080fd5b50600754610249565b34801561028d57600080fd5b506101f061029c366004611a86565b6109b1565b3480156102ad57600080fd5b506102496102bc366004611ac7565b6001600160a01b031660009081526008602052604090205490565b3480156102e357600080fd5b5046610249565b3480156102f657600080fd5b506101f0610305366004611a86565b6109e9565b34801561031657600080fd5b506101c36103253660046118f9565b610a04565b34801561033657600080fd5b50610249610345366004611ac7565b610a7b565b34801561035657600080fd5b506101f0610b02565b34801561036b57600080fd5b506101f061037a366004611ac7565b610b4d565b34801561038b57600080fd5b506101c3610bb5565b3480156103a057600080fd5b50610196610bc4565b3480156103b557600080fd5b506101f06103c4366004611ae4565b610bd3565b3480156103d557600080fd5b506101f0610be5565b3480156103ea57600080fd5b506101f06103f9366004611b22565b610c52565b34801561040a57600080fd5b506101966104193660046118f9565b610c91565b34801561042a57600080fd5b50610196610ccb565b34801561043f57600080fd5b50610196610ceb565b34801561045457600080fd5b5061016c610463366004611b8d565b610d0b565b34801561047457600080fd5b506101f0610483366004611ac7565b610dd0565b60006001600160e01b031982166380ac58cd60e01b14806104b957506001600160e01b03198216635b5e139f60e01b145b806104d457506301ffc9a760e01b6001600160e01b03198316145b92915050565b6060600080546104e990611bbb565b80601f016020809104026020016040519081016040528092919081815260200182805461051590611bbb565b80156105625780601f1061053757610100808354040283529160200191610562565b820191906000526020600020905b81548152906001019060200180831161054557829003601f168201915b5050505050905090565b600061057782610ee3565b6105dd5760405162461bcd60e51b815260206004820152602c60248201527f4552433732313a20617070726f76656420717565727920666f72206e6f6e657860448201526b34b9ba32b73a103a37b5b2b760a11b60648201526084015b60405180910390fd5b506000908152600460205260409020546001600160a01b031690565b600061060482610a04565b9050806001600160a01b0316836001600160a01b031614156106725760405162461bcd60e51b815260206004820152602160248201527f4552433732313a20617070726f76616c20746f2063757272656e74206f776e656044820152603960f91b60648201526084016105d4565b806001600160a01b0316610684610f00565b6001600160a01b031614806106a057506106a081610463610f00565b61070d5760405162461bcd60e51b815260206004820152603860248201527f4552433732313a20617070726f76652063616c6c6572206973206e6f74206f776044820152771b995c881b9bdc88185c1c1c9bdd995908199bdc88185b1b60421b60648201526084016105d4565b6107178383610f0a565b505050565b60408051606081810183526001600160a01b0388166000818152600860209081529085902054845283015291810186905261075a8782878787610f78565b6107b05760405162461bcd60e51b815260206004820152602160248201527f5369676e657220616e64207369676e617475726520646f206e6f74206d6174636044820152600d60fb1b60648201526084016105d4565b6001600160a01b0387166000908152600860205260409020546107d4906001611068565b6001600160a01b0388166000908152600860205260409081902091909155517f5845892132946850460bff5a0083f71031bc5bf9aadcd40f1de79423eac9b10b9061082490899033908a90611bf6565b60405180910390a1600080306001600160a01b0316888a60405160200161084c929190611c2b565b60408051601f198184030181529082905261086691611c5d565b6000604051808303816000865af19150503d80600081146108a3576040519150601f19603f3d011682016040523d82523d6000602084013e6108a8565b606091505b5091509150816108f95760405162461bcd60e51b815260206004820152601c60248201527b119d5b98dd1a5bdb8818d85b1b081b9bdd081cdd58d8d95cdcd99d5b60221b60448201526064016105d4565b98975050505050505050565b3467016345785d8a00001461096d5760405162461bcd60e51b815260206004820152602860248201527f4f6e6c79206368616972706572736f6e2063616e2067697665207269676874206044820152673a37903b37ba329760c11b60648201526084016105d4565b6000610978600a5490565b9050610988600a80546001019055565b610992338261107b565b50565b600060016109a2600a5490565b6109ac9190611c8f565b905090565b6109c26109bc610f00565b82611095565b6109de5760405162461bcd60e51b81526004016105d490611ca6565b610717838383611157565b61071783838360405180602001604052806000815250610c52565b6000818152600260205260408120546001600160a01b0316806104d45760405162461bcd60e51b815260206004820152602960248201527f4552433732313a206f776e657220717565727920666f72206e6f6e657869737460448201526832b73a103a37b5b2b760b91b60648201526084016105d4565b60006001600160a01b038216610ae65760405162461bcd60e51b815260206004820152602a60248201527f4552433732313a2062616c616e636520717565727920666f7220746865207a65604482015269726f206164647265737360b01b60648201526084016105d4565b506001600160a01b031660009081526003602052604090205490565b610b0a610f00565b6001600160a01b0316610b1b610bb5565b6001600160a01b031614610b415760405162461bcd60e51b81526004016105d490611cf7565b610b4b60006112f7565b565b610b55610f00565b6001600160a01b0316610b66610bb5565b6001600160a01b031614610b8c5760405162461bcd60e51b81526004016105d490611cf7565b6000610b97600a5490565b9050610ba7600a80546001019055565b610bb1828261107b565b5050565b6009546001600160a01b031690565b6060600180546104e990611bbb565b610bb1610bde610f00565b8383611349565b610bed610f00565b6001600160a01b0316610bfe610bb5565b6001600160a01b031614610c245760405162461bcd60e51b81526004016105d490611cf7565b33806108fc476040518115909202916000818181858888f19350505050158015610bb1573d6000803e3d6000fd5b610c63610c5d610f00565b83611095565b610c7f5760405162461bcd60e51b81526004016105d490611ca6565b610c8b84848484611414565b50505050565b6060610c9b610ccb565b610ca483611447565b604051602001610cb5929190611d2c565b6040516020818303038152906040529050919050565b60606040518060600160405280602a8152602001611f2a602a9139905090565b60606040518060600160405280603b8152602001611eac603b9139905090565b600b5460405163c455279160e01b81526000916001600160a01b039081169190841690829063c455279190610d44908890600401611912565b602060405180830381865afa158015610d61573d6000803e3d6000fd5b505050506040513d601f19601f82011682018060405250810190610d859190611d5b565b6001600160a01b03161415610d9e5760019150506104d4565b6001600160a01b0380851660009081526005602090815260408083209387168352929052205460ff165b949350505050565b610dd8610f00565b6001600160a01b0316610de9610bb5565b6001600160a01b031614610e0f5760405162461bcd60e51b81526004016105d490611cf7565b6001600160a01b038116610e745760405162461bcd60e51b815260206004820152602660248201527f4f776e61626c653a206e6577206f776e657220697320746865207a65726f206160448201526564647265737360d01b60648201526084016105d4565b610992816112f7565b80546001019055565b600033301415610edd57600080368080601f0160208091040260200160405190810160405280939291908181526020018383808284376000920191909152505050503601516001600160a01b03169150610ee09050565b50335b90565b6000908152600260205260409020546001600160a01b0316151590565b60006109ac610e86565b600081815260046020526040902080546001600160a01b0319166001600160a01b0384169081179091558190610f3f82610a04565b6001600160a01b03167f8c5be1e5ebec7d5bd14f71427d1e84f3dd0314c0f7b2291e5b200ac8c7c3b92560405160405180910390a45050565b60006001600160a01b038616610fde5760405162461bcd60e51b815260206004820152602560248201527f4e61746976654d6574615472616e73616374696f6e3a20494e56414c49445f5360448201526424a3a722a960d91b60648201526084016105d4565b6001610ff1610fec87611544565b6115c1565b6040805160008152602081018083529290925260ff851690820152606081018690526080810185905260a0016020604051602081039080840390855afa15801561103f573d6000803e3d6000fd5b505050602060405103516001600160a01b0316866001600160a01b031614905095945050505050565b60006110748284611d78565b9392505050565b610bb18282604051806020016040528060008152506115f1565b60006110a082610ee3565b6111015760405162461bcd60e51b815260206004820152602c60248201527f4552433732313a206f70657261746f7220717565727920666f72206e6f6e657860448201526b34b9ba32b73a103a37b5b2b760a11b60648201526084016105d4565b600061110c83610a04565b9050806001600160a01b0316846001600160a01b031614806111475750836001600160a01b031661113c8461056c565b6001600160a01b0316145b80610dc85750610dc88185610d0b565b826001600160a01b031661116a82610a04565b6001600160a01b0316146111d25760405162461bcd60e51b815260206004820152602960248201527f4552433732313a207472616e73666572206f6620746f6b656e2074686174206960448201526839903737ba1037bbb760b91b60648201526084016105d4565b6001600160a01b0382166112345760405162461bcd60e51b8152602060048201526024808201527f4552433732313a207472616e7366657220746f20746865207a65726f206164646044820152637265737360e01b60648201526084016105d4565b61123f600082610f0a565b6001600160a01b0383166000908152600360205260408120805460019290611268908490611c8f565b90915550506001600160a01b0382166000908152600360205260408120805460019290611296908490611d78565b909155505060008181526002602052604080822080546001600160a01b0319166001600160a01b0386811691821790925591518493918716917fddf252ad1be2c89b69c2b068fc378daa952ba7f163c4a11628f55a4df523b3ef91a4505050565b600980546001600160a01b038381166001600160a01b0319831681179093556040519116919082907f8be0079c531659141344cd1fd0a4f28419497f9722a3daafe3b4186f6b6457e090600090a35050565b816001600160a01b0316836001600160a01b031614156113a75760405162461bcd60e51b815260206004820152601960248201527822a9219b99189d1030b8383937bb32903a379031b0b63632b960391b60448201526064016105d4565b6001600160a01b03838116600081815260056020908152604080832094871680845294825291829020805460ff191686151590811790915591519182527f17307eab39ab6107e8899845ad3d59bd9653f200f220920489ca2b5937696c31910160405180910390a3505050565b61141f848484611157565b61142b84848484611624565b610c8b5760405162461bcd60e51b81526004016105d490611d90565b60608161146b5750506040805180820190915260018152600360fc1b602082015290565b8160005b8115611495578061147f81611de2565b915061148e9050600a83611e13565b915061146f565b6000816001600160401b038111156114af576114af611967565b6040519080825280601f01601f1916602001820160405280156114d9576020820181803683370190505b5090505b8415610dc8576114ee600183611c8f565b91506114fb600a86611e27565b611506906030611d78565b60f81b81838151811061151b5761151b611e3b565b60200101906001600160f81b031916908160001a90535061153d600a86611e13565b94506114dd565b6000604051806080016040528060438152602001611ee760439139805160209182012083518483015160408087015180519086012090516115a4950193845260208401929092526001600160a01b03166040830152606082015260800190565b604051602081830303815290604052805190602001209050919050565b60006115cc60075490565b60405161190160f01b60208201526022810191909152604281018390526062016115a4565b6115fb8383611729565b6116086000848484611624565b6107175760405162461bcd60e51b81526004016105d490611d90565b60006001600160a01b0384163b1561171e57836001600160a01b031663150b7a0261164d610f00565b8786866040518563ffffffff1660e01b815260040161166f9493929190611e51565b6020604051808303816000875af19250505080156116aa575060408051601f3d908101601f191682019092526116a791810190611e8e565b60015b611704573d8080156116d8576040519150601f19603f3d011682016040523d82523d6000602084013e6116dd565b606091505b5080516116fc5760405162461bcd60e51b81526004016105d490611d90565b805181602001fd5b6001600160e01b031916630a85bd0160e11b149050610dc8565b506001949350505050565b6001600160a01b03821661177f5760405162461bcd60e51b815260206004820181905260248201527f4552433732313a206d696e7420746f20746865207a65726f206164647265737360448201526064016105d4565b61178881610ee3565b156117d45760405162461bcd60e51b815260206004820152601c60248201527b115490cdcc8c4e881d1bdad95b88185b1c9958591e481b5a5b9d195960221b60448201526064016105d4565b6001600160a01b03821660009081526003602052604081208054600192906117fd908490611d78565b909155505060008181526002602052604080822080546001600160a01b0319166001600160a01b03861690811790915590518392907fddf252ad1be2c89b69c2b068fc378daa952ba7f163c4a11628f55a4df523b3ef908290a45050565b6001600160e01b03198116811461099257600080fd5b60006020828403121561188357600080fd5b81356110748161185b565b60005b838110156118a9578181015183820152602001611891565b83811115610c8b5750506000910152565b600081518084526118d281602086016020860161188e565b601f01601f19169290920160200192915050565b60208152600061107460208301846118ba565b60006020828403121561190b57600080fd5b5035919050565b6001600160a01b0391909116815260200190565b6001600160a01b038116811461099257600080fd5b6000806040838503121561194e57600080fd5b823561195981611926565b946020939093013593505050565b634e487b7160e01b600052604160045260246000fd5b600082601f83011261198e57600080fd5b81356001600160401b03808211156119a8576119a8611967565b604051601f8301601f19908116603f011681019082821181831017156119d0576119d0611967565b816040528381528660208588010111156119e957600080fd5b836020870160208301376000602085830101528094505050505092915050565b600080600080600060a08688031215611a2157600080fd5b8535611a2c81611926565b945060208601356001600160401b03811115611a4757600080fd5b611a538882890161197d565b9450506040860135925060608601359150608086013560ff81168114611a7857600080fd5b809150509295509295909350565b600080600060608486031215611a9b57600080fd5b8335611aa681611926565b92506020840135611ab681611926565b929592945050506040919091013590565b600060208284031215611ad957600080fd5b813561107481611926565b60008060408385031215611af757600080fd5b8235611b0281611926565b915060208301358015158114611b1757600080fd5b809150509250929050565b60008060008060808587031215611b3857600080fd5b8435611b4381611926565b93506020850135611b5381611926565b92506040850135915060608501356001600160401b03811115611b7557600080fd5b611b818782880161197d565b91505092959194509250565b60008060408385031215611ba057600080fd5b8235611bab81611926565b91506020830135611b1781611926565b600181811c90821680611bcf57607f821691505b60208210811415611bf057634e487b7160e01b600052602260045260246000fd5b50919050565b6001600160a01b03848116825283166020820152606060408201819052600090611c22908301846118ba565b95945050505050565b60008351611c3d81846020880161188e565b60609390931b6001600160601b0319169190920190815260140192915050565b60008251611c6f81846020870161188e565b9190910192915050565b634e487b7160e01b600052601160045260246000fd5b600082821015611ca157611ca1611c79565b500390565b60208082526031908201527f4552433732313a207472616e736665722063616c6c6572206973206e6f74206f6040820152701ddb995c881b9bdc88185c1c1c9bdd9959607a1b606082015260800190565b6020808252818101527f4f776e61626c653a2063616c6c6572206973206e6f7420746865206f776e6572604082015260600190565b60008351611d3e81846020880161188e565b835190830190611d5281836020880161188e565b01949350505050565b600060208284031215611d6d57600080fd5b815161107481611926565b60008219821115611d8b57611d8b611c79565b500190565b60208082526032908201527f4552433732313a207472616e7366657220746f206e6f6e20455243373231526560408201527131b2b4bb32b91034b6b83632b6b2b73a32b960711b606082015260800190565b6000600019821415611df657611df6611c79565b5060010190565b634e487b7160e01b600052601260045260246000fd5b600082611e2257611e22611dfd565b500490565b600082611e3657611e36611dfd565b500690565b634e487b7160e01b600052603260045260246000fd5b6001600160a01b0385811682528416602082015260408101839052608060608201819052600090611e84908301846118ba565b9695505050505050565b600060208284031215611ea057600080fd5b81516110748161185b56fe68747470733a2f2f6372656174757265732d6170692e6f70656e7365612e696f2f636f6e74726163742f6f70656e7365612d6372656174757265734d6574615472616e73616374696f6e2875696e74323536206e6f6e63652c616464726573732066726f6d2c62797465732066756e6374696f6e5369676e61747572652968747470733a2f2f68796d616e2d6e66742e6865726f6b756170702e636f6d2f6170692f746f6b656e2fa26469706673582212200ad25553783a7e1c59acdecb8da6844ed5f3f32e896b389592b660adc14b44fd64736f6c634300080b0033454950373132446f6d61696e28737472696e67206e616d652c737472696e672076657273696f6e2c6164647265737320766572696679696e67436f6e74726163742c627974657333322073616c7429",
  "immutableReferences": {},
  "source": "// SPDX-License-Identifier: MIT\n\npragma solidity ^0.8.0;\n\nimport \"./ERC721Tradable.sol\";\n\n/**\n * @title Creature\n * Creature - a contract for my non-fungible creatures.\n */\ncontract Creature is ERC721Tradable {\n    constructor(address _proxyRegistryAddress)\n        ERC721Tradable(\"HymanCollection\", \"HYM\", _proxyRegistryAddress)\n    {}\n\n    function baseTokenURI() override public pure returns (string memory) {\n        return \"https://hyman-nft.herokuapp.com/api/token/\";\n    }\n\n    function contractURI() public pure returns (string memory) {\n        return \"https://creatures-api.opensea.io/contract/opensea-creatures\";\n    }\n}\n",
  "sourcePath": "/home/hyman/project/opensea-creatures/contracts/Creature.sol",
  "compiler": {
    "name": "solc",
    "version": "0.8.11+commit.d7f03943.Emscripten.clang"
  },
  "schemaVersion": "3.4.3",
  "updatedAt": "2021-12-21T13:53:01.303Z",
  "networkType": "ethereum",
  "devdoc": {
    "kind": "dev",
    "methods": {
      "approve(address,uint256)": {
        "details": "See {IERC721-approve}."
      },
      "balanceOf(address)": {
        "details": "See {IERC721-balanceOf}."
      },
      "getApproved(uint256)": {
        "details": "See {IERC721-getApproved}."
      },
      "mintCustomer()": {
        "details": "Mints a token to an address with a tokenURI."
      },
      "mintTo(address)": {
        "details": "Mints a token to an address with a tokenURI.",
        "params": {
          "_to": "address of the future owner of the token"
        }
      },
      "name()": {
        "details": "See {IERC721Metadata-name}."
      },
      "owner()": {
        "details": "Returns the address of the current owner."
      },
      "ownerOf(uint256)": {
        "details": "See {IERC721-ownerOf}."
      },
      "renounceOwnership()": {
        "details": "Leaves the contract without owner. It will not be possible to call `onlyOwner` functions anymore. Can only be called by the current owner. NOTE: Renouncing ownership will leave the contract without an owner, thereby removing any functionality that is only available to the owner."
      },
      "safeTransferFrom(address,address,uint256)": {
        "details": "See {IERC721-safeTransferFrom}."
      },
      "safeTransferFrom(address,address,uint256,bytes)": {
        "details": "See {IERC721-safeTransferFrom}."
      },
      "setApprovalForAll(address,bool)": {
        "details": "See {IERC721-setApprovalForAll}."
      },
      "supportsInterface(bytes4)": {
        "details": "See {IERC165-supportsInterface}."
      },
      "symbol()": {
        "details": "See {IERC721Metadata-symbol}."
      },
      "totalSupply()": {
        "details": "Returns the total tokens minted so far. 1 is always subtracted from the Counter since it tracks the next available tokenId."
      },
      "transferFrom(address,address,uint256)": {
        "details": "See {IERC721-transferFrom}."
      },
      "transferOwnership(address)": {
        "details": "Transfers ownership of the contract to a new account (`newOwner`). Can only be called by the current owner."
      }
    },
    "title": "Creature Creature - a contract for my non-fungible creatures.",
    "version": 1
  },
  "userdoc": {
    "kind": "user",
    "methods": {
      "isApprovedForAll(address,address)": {
        "notice": "Override isApprovedForAll to whitelist user's OpenSea proxy accounts to enable gas-less listings."
      }
    },
    "version": 1
  }
}